:020000041C00DE
:1040000080B500F0DDF903F033F901F0A7FD0A48AF
:104010000A4901600A480B4901600B480B490160DD
:104020000B480C4901600C480C4901600CA0BDE82C
:10403000804003F0F3B900BF94444120C145001C07
:10404000244441209D40001C984441202559001CD7
:10405000804441208D71001C2C4441207940001C7B
:10406000506174636820686F6F6B20696E73746150
:104070006C6C2E2E0A00000080B5012803D020B9F8
:104080000549002001E00349012003F0CCF900209C
:1040900080BD00BF9545001CE143001C032804BF00
:1040A000094870473C2804BF0A487047172804BFD6
:1040B00007487047182804BF044870470B2814BFEE
:1040C00000200548704700BF6079001C147A001C6E
:1040D0009479001C8879001C6C79001C80B502F072
:1040E000E9F803F0A5F90948016841F4807101601D
:1040F000016841F400710160016841F48061016070
:10410000016841F40061016080BD00BF00040950F6
:1041100080B50D4951F8200098B1D0F8FC0080B16D
:10412000C079402807D2782101EA5000094921FAD4
:1041300000F0C0B280BD054805494FF43D7203F060
:104140007CF9002080BD00BF98474120A079001C69
:10415000D079001C0000010170B5194A02EB800201
:10416000D2F81C5155B3174A95F8333010FB0210A2
:10417000A64995F83120B1F84010033222F003022D
:10418000401A95F8301002FB1100D91D21F00301EF
:10419000043890FBF1F0C1B2490051FA80F603F007
:1041A00051F90446E86A00EB860105F1140003F0BA
:1041B0004EF92046BDE8704003F04EB970BD00BF17
:1041C000444B412090F7FFFF80B503F04AF9C0B29D
:1041D00080BD00002DE9FE4F814603F033F9804693
:1041E000684603F043F91F4EDDF808A07068AAEB9B
:1041F0000005B5F1FF3F05DC1BA01CA14FF4987230
:1042000003F01BF91A489DE80E00D6F810B096E8A6
:10421000905080E89E50C0F81CB04FF47A70154959
:104220003289B5FBF0F000FB015111448AB23181B3
:10423000B2F57A7F22BFA1F57A7131810130F16840
:10424000CA43904202D9327C013232740844C6F823
:1042500004A0F0603169C9E90001404603F0FCF8B0
:10426000BDE8FE8FA04C412041535300612E6300F6
:104270000040412018FCFFFFB0B5584CA07850B169
:104280002078052809D30025084621F8065C03F0AC
:10429000F2F8012003E00020B0BD451C002025708D
:1042A000B0BD00BFBCB54FF685400C46834214D06C
:1042B0004FF68640834266D04FF68A4083421ED135
:1042C0004FF4885000214FF68A42012303F0D8F8BA
:1042D0000546207840B3122051E04FF48850002169
:1042E0004FF685420123002503F0CAF821783B4AA6
:1042F00002EB81012268C1F80120057041E02649E6
:104300000020B0F5847F3ED00D5A08309D42F8D190
:10431000084450F804CCBCF1000F34D018462146B4
:1043200002B0BDE8B04060476078022815D001288F
:104330001AD00028CFD10620144C0DF107018DF8BA
:1043400007001348224603680120984788B11148A6
:1043500081880068A18020600BE0E0880B4988809C
:10436000D4F80200086004E00848017881F05501A3
:104370000170064800F1190103F087F80020287049
:10438000284603F078F80020BCBD00BFD85C41206F
:10439000DC474120B0A20500C4A3050041F205118D
:1043A000054A41F209138842044918BF0022984285
:1043B00018BF114608467047A542001C7942001CF0
:1043C000064800210022042A05D000EB82030132B6
:1043D000C3F80110F7E70021017070472840412021
:1043E00080B503F057F80120BDE8804003F057B8CE
:1043F000064A00EB4000D28C02EB4010044A835A7C
:1044000023F0FF0319448152704700BFAC5741208D
:104410001480412004493028087004BF04487047C4
:104420000249022203F040B82842412014B5050099
:104430008079001C80B50A464FF4885000210A2379
:1044400003F01EF80C2101710449C0F8061004495C
:10445000016003F010F8002080BD00BF4C0A5F022D
:10446000000C0002F8B510460C4603F022F819289B
:1044700016D8012101FA00F01449084210D0271D76
:1044800002F0E0FF0546607800F00F00461E398814
:10449000F0B203F013F8284602F0DEFF0020F8BD6A
:1044A00034F8041F14F8030C00F00F00461EF5B298
:1044B000284603F008F80146284603F009F80028CA
:1044C000ECD002F0BFFF05462746E0E72100C0031D
:1044D00070B540F6FE708D0B14460E0201EA000323
:1044E000B5FA85F200200A2B38BF0120520902409C
:1044F0004FF0FF001CBF301DFB220126B6EB913FA1
:104500000AD02DB9802B03D140F2FD32012006E004
:1045100081B2FF2903D104E040F2FD320220A24221
:1045200001D2002070BD4FF0FF3151FA80F1022915
:1045300002D202F0D2FF04E0C0B2042805D102F09A
:10454000D1FF40B10D49084470BD0DA00DA140F24E
:10455000091202F072FF41F2021000211A22012317
:10456000012502F08DFF057002F085FF2046012134
:1045700002F0BDFF064981F8565070BD0080412011
:10458000415353006863695F70617463682E630010
:104590001859412010B5084C206802F0ADFF30B129
:1045A00006480168012088470020206010BDBDE852
:1045B000104002F0A6BF00BF1465412030444120E6
:1045C000C9B2062909D8DFE801F0040608080A087C
:1045D0000C0001F05BBA00F027BA0020704700F031
:1045E0001FBEFFF7DBBE0000F8B5074608481546BA
:1045F0000E461C46294602684FF4C4609047384670
:1046000031462A46234602F081FF0020F8BD00BF54
:104610005044412010B50C881CB1BDE8104002F098
:104620007ABF002010BD0000F8B50446D248458886
:1046300025F0FF00B0F5807F29D1D0480068C07F09
:1046400004282ED102F0FEFE21780746002002F059
:1046500067FF0646384602F0FFFE16B3F0482278A0
:104660006168304402F061FF48F201000022062335
:1046700080EA052081B241F2071002F001FF2178A3
:10468000868005808170BDE8F84002F053BFE54A9E
:104690002846214640F2793301B0BDE8F04002F0EF
:1046A0004EBFF8BD2DE9F04385B004463C48005D9F
:1046B0001638042870D39D480D46012150F8246017
:1046C00000204F2814D006EBD00200F0060392F829
:1046D0003C22DA4002F00302032A07D1C20800F0AC
:1046E0000707AB5C01FA07F7BB43AB540130E8E7BF
:1046F000284602F029FF06F50A7829460A22404694
:1047000002F027FF002847D096F83C00022813D17A
:1047100000200DF112010DF11102ADF812008DF81B
:104720001100204602F01AFF9DF81100BDF812108A
:10473000063000FB01F705E0204602F014FF00EB15
:104740004000470002F014FF814601A8214602F014
:1047500014FF642F98BF642709EB470001990122D9
:104760002B464FF001090844C0F35A00013020F0F5
:1047700001072046394602F005FF68B94046294640
:104780000A2202F0D2FE96F836302046394601223F
:1047900002F0FDFE86F84C9205B0BDE8F08300BF44
:1047A000D05C41201CB504466048332250F82100FB
:1047B00090F8360062F35F008DF80400C8B201A9DA
:1047C00002F0EAFE204602F0ECFE2046112102F043
:1047D000EDFE1CBDB0B5554D140A55F824401CB172
:1047E000BDE8B04002F0E7BE0020B0BDB0B54F4D0F
:1047F000140A55F824401CB1BDE8B04002F0E0BEF8
:104800000020B0BD2DE9F047074610461D4614466E
:104810000E4602F04EFE052834D13088284F4FEA6C
:10482000142AC55DC15DC11991F80190254951F85F
:104830002A8002F0CAFE30886E083246013080B20B
:10484000C35D802000EB1421192002F0C3FE032079
:10485000B0EB550F1DD03C2E20D07F2E21D1B9F1C9
:10486000010F16D0B9F1110F1BD198F84F0228B9DA
:104870006C4915A040F22F3202F0DFFD002088F8CD
:104880004F020EE03846314622462B4602F0A7FE84
:1048900007E02046314602F0A7FE02E0504602F053
:1048A000A8FE01F087F938B104460079611D00F0D7
:1048B00067F8204602F0A2FE0020BDE8F08700BFA6
:1048C00000804120605C412041535300B0B517493E
:1048D000100A144651F82050104602F0EAFD19283B
:1048E0000CD8012101FA00F01149084201D0002042
:1048F000B0BD10F0300F01D00220B0BD012085F80E
:10490000440095F83C00022803D1204602F07BFECB
:10491000F2E795F83710204602F07AFE0028EBD037
:1049200095F83710204602F078FEE0E7605C412001
:104930000100C00310B50146007800B110BD0E4C57
:104940001422204602F0F1FD0C49086810B1012242
:1049500080F8222049680029F0D0807F0028EDD11E
:1049600091F85500E072022814BF4FF01E104FF06E
:104970000A10C4F80E0010BDC447412078474120FA
:104980007CB50C46054602F04DFEF0B106461421FA
:104990002078ADF806107F21B1EB500F07BF60788B
:1049A0001E4940081C4900EB400001EB80004068B4
:1049B00088B100900DF1060220462146142302F032
:1049C00036FE80B1BDF8061007E028462146BDE856
:1049D0007C4001F0FDB804201421124A40F29D23CE
:1049E00002F0ADFD7CBDB0880D49BDF8062008443D
:1049F000214602F09AFD9DF806003146B071284626
:104A000002F01AFE9DF8062005F1800117202346CA
:104A100002F017FE7CBD00BFC0C90500E4CC050054
:104A200000804120C579001CA0F21E61082909D828
:104A30000E48DFE801F005131315141713131900BE
:104A40000B48704740F20161884204BF0A48704732
:104A500041F20711884204BF0A487047002070479E
:104A60000448704706487047044870470548001CD2
:104A7000CD48001CED47001CD547001CE945001C33
:104A80001546001C6544001C70B504461C48427A5B
:104A9000012A0AD1807A884218BF002805D1A54A88
:104AA00020464FF4627302F04AFDD54850F8246066
:104AB0001EB13046002102F0C9FD204601F0AEFBD8
:104AC000204601F051F802F0BDFC054696F8F500CD
:104AD00030B1002086F8F5004FF4004002F0BBFD35
:104AE0000026032E07D8204602F0BAFD18B102F0C6
:104AF000BCFD0136F5E72846BDE8704002F0ACBCCD
:104B00002940412000F01CB810B5CCB2022C07D3CC
:104B1000884B114620461A4640F2455302F00FFDDD
:104B2000B74850F8240008B1002010BD814A204643
:104B3000002140F24A5302F09DFD012010BD00BF4C
:104B400070B5014690F8AE0091F8BF20C2B191F85F
:104B5000BD20384C02EB4002D3B25B0053FA82F323
:104B6000364A528D02EB83052544EE88C6B9AD88DE
:104B7000B5B191F8BB1099B199002143895A0FE062
:104B8000D1F8FC1061B109490968890308D500EB27
:104B90004001284A42EA4111284AD28C11448988AE
:104BA0000021BDE8704001F04DBB00BFD4040950A6
:104BB000FFF7C6BF2DE9F04F85B01E4C1E4EDFF843
:104BC00008889B468A4607460025049204F102099C
:104BD000032D18D8384602F043FDA0B196F82110F5
:104BE000B8F8280044EA0112125A520707D1090105
:104BF00041EA0902125A02F07802102A07D002F0A4
:104C000034FD0135E4E7002005B0BDE8F08F04F184
:104C10000A02002311430E9A085A0021CDF800B071
:104C2000CDE90121049A514602F029FD02F01DFD53
:104C30000120E9E702804120D85C4120AC574120A7
:104C40002DE9F0410446FFF77BFF002C42D094F899
:104C5000AF0001283ED1E06FD4F8C810814239D0AE
:104C60006168D4F88460B4F89680081A20F0704720
:104C700002F00AFD054694F8AE0002F00AFD08B104
:104C8000142001E094F8B20050FA85F040F271214E
:104C9000784348431049B0FBF1F0A8EB000001B2A3
:104CA000B1F1FF3F05DC711C00F2712021F070466C
:104CB000F5E7D4F8D000811B301A21F0704120F0C4
:104CC0007040B1F1006F88BF4142042924BFE06FFA
:104CD000C4F8C800BDE8F08140420F00484951F8CF
:104CE000200050B190F8F510012906D1002180F87C
:104CF000F5104FF4004002F0AEBC704710B5CCB2D6
:104D0000022C07D3B94B114620461A4640F23553C0
:104D100002F015FC3A4850F8240008B1002010BDFC
:104D2000B24A2046002140F23A5302F0A3FC01208F
:104D300010BD00BFD079001C314951F8200018B3D4
:104D4000C16FD0F8D420531A891A23F0704321F090
:104D50007041B3F1006F88BF4B4290F8EE20B0F87D
:104D6000DC10002A08BF0122514301EB41018B42B4
:104D70000BDA90F8F510012906D1002180F8F51022
:104D80004FF4004002F067BC7047012180F8F51035
:104D90004FF4004002F082BCF8B51C4615460E46A2
:104DA000074602F04FFB164951F82710A1B191F8C0
:104DB000B1200C27012A10D191F8AF1045EA060363
:104DC000069A234300294FF00C0108BF4FF0FF3132
:104DD0001A4308BF0F4600E00C2702F03DFBF8B273
:104DE000F8BD00BF80B501F019FA002080BD0000B9
:104DF000034951F82000002818BF0120704700BF68
:104E00009847412010B50024032C07D8022002F057
:104E100027FC18B102F029FC0134F5E710BD0000B1
:104E20002DE9F04F85B004469A4850F82470002FC1
:104E300000F0D78097F85B0028B16B486B494FF4BE
:104E4000966202F0FAFA07F15C0002F02CFC804650
:104E50002046002102F02CFC8446834804944FEA4B
:104E6000441B634B634D00F1080950F80B6059F87F
:104E70000B4097F8591081F00101B1EBD67F0DD1AD
:104E800000EB0B019A461223240C51F80C2F0393CC
:104E900053464FEA124E4FF0F85208E000EB0B0178
:104EA00010234FF4F85251F80CEF03932B4600EB0C
:104EB0000B0AB8F1000FDAF8040002905BF8090061
:104EC00000EA030040EA02004BF80900086800EA23
:104ED0000300474B086021D0B8F8040081070ED0CA
:104EE0004148424940F2E342CDE9008CF04602F0ED
:104EF000A4FA0098DDF804C0C6463D4B80882946D8
:104F0000B6F1FF3F4FEA9000C8BF194659F80B2091
:104F1000C8BF00041140084349F80B00DDF81080B9
:104F2000A400BCF1000F1FD0BCF8040081070DD015
:104F30002D482E4940F2EF42A946E346754602F05D
:104F40007CFABBF80400AE46294B4D46B6F1FF3F54
:104F5000C8BF1D46DAF80C104FEA9000C8BF000425
:104F600029400843CAF80C00A5B24FEA8E06ADB13D
:104F7000B5F5F84F12D097F85600FF220123000232
:104F8000013081B24FF4C66002F07AFA80F80080F6
:104F900002F0D0FA4046294602F090FA300420D0C0
:104FA000DDE90210FF22062321FA00F000F00304DD
:104FB00097F856000002013081B240F22F6002F0F3
:104FC0005FFA97F8702097F84010068080F8048008
:104FD000C47001325143817005B0BDE8F04F02F05A
:104FE000A9BA05B0BDE8F08FA079001CD079001CEB
:104FF000FFFF00C000C0FFFF264951F8200010B19C
:10500000002102F023BB704780B52249096859B1DD
:1050100040B190F84E1090F85600023918BF0121A7
:1050200001F010F9012080BD002080BDC1F30711FF
:10503000184840F2FD1250F82100490190F8520042
:1050400002EB4000084AC0F347001F2828BF1F207A
:105050005358C3F30423834205D08B5823F4F853E9
:1050600043EA00208850704710060950B0B50D463D
:1050700002F0E8F90446074850F8250028B100215D
:1050800002F0E4FA284602F018FB204602F0E4F9A8
:105090000020B0BD9047412070B514460D4606462D
:1050A00000F0E4FA08B12A2004E0304629462246FE
:1050B00002F008FBC0B270BD2DE9F8438146888834
:1050C0000D4640F67A432026811F994279D8E98817
:1050D0008B087C2B75D82B8940F67644A3F10A0700
:1050E000A7426ED800EB800001314008484303EB33
:1050F00083014900814201D2202662E03E4850F8F7
:105100002900B0F89600C0075AD1688947F6FF71A8
:10511000101A80B2884201D2282652E04846002167
:1051200002F0D5FA052805D14846012102F0CFFA50
:10513000052849D14846012102F0C9FA08B10927DA
:1051400018E04FF4867004210422302302F098F90D
:105150002A4A0521064602F0BFFA00200121324604
:10516000A6F82D0030614FF6FF70F082484602F03D
:10517000B8FA0727484601214FF0010802F0A7FAC4
:1051800005281DD14846012102F0B0FA49463A46A9
:10519000064602F0B0FAA88886F82C80394600222C
:1051A0003085D5F80600F0606889B084688870841E
:1051B000687886F826004846002602F0A1FA00E04A
:1051C00024263046BDE8F88348460021002602F038
:1051D0008DFAA98800220185D5F80610C160698979
:1051E000818469884184697880F8261048460321C3
:1051F00002F08BFAE5E700BF105D41205108030083
:1052000070B514460D46064600F030FA08B12A2063
:1052100004E030462946224602F07CFAC0B270BD56
:105220000349B0F5057F18BF00210846704700BF4D
:105230006957001C10B504461148417B01290CD167
:10524000807B904218BF002807D10E4B11462046A4
:105250001A4640F2D73302F072F9FA4850F82400A7
:1052600060B190F8C510012908D1002180F8C5105F
:105270004FF48030BDE8104002F0EDB910BD00BF22
:1052800029404120077A001CF8B50F46054602F078
:10529000D9F80446F44850F82560D6B1B6F8920023
:1052A00020F0100067F30410A6F89200284602F0E0
:1052B00036FA67B1284602F037FA96F8A60030B100
:1052C000284631460022002700F0D6FA02E00027E7
:1052D00000E00C27204602F0BFF83846F8BD00BFBA
:1052E0002DE9F041304D0446884695F82200FF280C
:1052F0000AD002F01EFA95F822100222C90002FA22
:1053000001F1084302F01AFA95F82300FF280AD0A9
:1053100002F00FFA95F823100222C90002FA01F1F7
:10532000084302F00BFA02F08DF80646D54850F813
:105330002470A7B107F12C00414602F088F8B7F8B5
:10534000920040F00800A7F89200204602F0ECF925
:1053500020463946012200F08FFA002400E00C2498
:10536000304602F079F895F82200FF280AD002F0C2
:10537000E0F995F822100222C90002FA01F18843EF
:1053800002F0DCF995F82300FF280AD002F0D1F9E9
:1053900095F823100222C90002FA01F1884302F0B5
:1053A000CDF92046BDE8F0817446412058B1064948
:1053B00090F8A2009422498810FB02100349425A37
:1053C00042F0200242527047AC57412002804120F7
:1053D0002DE9F047DFF8489559F82050B5B10F4650
:1053E000824628460121164602F030F995F8A300BE
:1053F000022813D1B5F892003D220121000658BFC2
:1054000016225046BDE8F04702F09DB9D448D54970
:1054100040F2CB32BDE8F04702F00FB802F098F945
:105420008046B5F88A00696F0130A5F88A00A86D3A
:10543000084420F07040A865504602F08EF9824979
:10544000C0B276B101EB4000A97E40784418FEF767
:10545000BBFE00F003002044FF2828BFFF20A876F1
:1054600041E011F8102095F8C330FF261A44FF2AB6
:1054700028BF3246AA762A6EBB1AD21B23F070448C
:1054800022F07042B4F1006F88BF5442012C10DB4F
:1054900001EB40004778FEF797FE00F00300A10AF9
:1054A00038444843A97E51FA80F0FF2838BF0646A9
:1054B000AE76B5F88210686F06314843844207DD46
:1054C000012085F8C5004FF4803002F0E7F80AE0CB
:1054D00095F8C500012806D1002085F8C5004FF4D5
:1054E000803002F0B8F895F8BB0068B159F82A602E
:1054F00096F8A700311891F9AE007F281CBF91F9EA
:10550000B61011F1010218D195F8BA0020B1FF28A8
:105510001CBF013885F8BA00B5F89200C00501D467
:10552000012204E0286EE96E421A18BF012250469B
:105530004146BDE8F04702F015B9B0EB0109D8BF0C
:105540004FF0000996F8C00096F8C17090B101289C
:105550001AD0022825D0FF2847D196F8BC205FFA40
:1055600089F191423FD896F8BE200027914288BF2A
:1055700001273DE096F8BE2096F8BF305FFA89F12A
:105580001A448A4216D330E096F8BE2096F8BF300F
:105590005FFA89F1D21A8A4216DD002F4AD0012122
:1055A0004BE096F8BC2096F8BD305FFA89F1D21A2C
:1055B0008A421ADD012F06BFB6F89E100131012183
:1055C000A6F89E10012713E096F8BC2096F8BD308F
:1055D0001A448A4209D2022F06BFB6F89E10013142
:1055E0000121A6F89E10022702E00021A6F89E10D5
:1055F000B6F89C10B6F89E2086F8C1708A4205D88D
:10560000FF287FF481AFFF2F3FF47EAF4FEA0A20DF
:10561000FF220223011D40F2162001F031FF4770E6
:1056200080F8009001F086FF002086F8C070A6F890
:105630009E0069E7B6F89E100131A6F89E1000277B
:10564000D6E700BF6C5D4120DCCE0500B44951F8BF
:10565000200030B190F8A3000138B0FA80F0400982
:1056600070470020704700BF6C5D4120AC4951F885
:10567000200028B190F85600002818BF012070477C
:10568000002070476C5D41202DE9F041334D044608
:10569000884695F82200FF280AD002F04AF895F8CB
:1056A00022100122C90002FA01F1084302F046F873
:1056B00095F82300FF280AD002F03BF895F8231054
:1056C0000122C90002FA01F1084302F037F801F0A3
:1056D000B9FE0646924850F82470CFB1B86A28B196
:1056E000A748A84940F2792201F0A7FEB7F8920036
:1056F000C7F8288040F00800A7F89200204602F082
:1057000013F820463946012200F0B6F8002400E0E4
:105710000C24304601F0A0FE95F82200FF280AD0A4
:1057200002F007F895F822100122C90002FA01F1EF
:10573000884302F003F895F82300FF280AD001F00F
:10574000F8FF95F823100122C90002FA01F18843FD
:1057500001F0F4FF2046BDE8F08100BF744641200F
:10576000A079001C077A001C2DE9F041140A0746B5
:10577000984615460E46204601F0F9FF0D4951F8AE
:10578000241059B10089328882420AD3092C05D8E5
:1057900091F8980000F00300032802D10020BDE832
:1057A000F081384631462A464346BDE8F04101F0D3
:1057B000E3BF00BF105D41202DE9F0471E461446AF
:1057C0000F46814601F03EFEDFF854A180465AF8AC
:1057D00029504DB195F8560040B16A4A002140F277
:1057E000123301F0ACFE20E00C2633E00A98DDE92C
:1057F0000821A5F854000120A5F84E20B20085F834
:105800005600A000A5F84C00B800A5F8800048019B
:10581000C5E91120686FB0EB860F06D995F8A8107E
:10582000022902D3484601F0ACFF95F8A3000026F8
:1058300085F8506070B901F08BFF04465AF82900D2
:105840000021002601F002FF95F8A2002146012266
:1058500001F088FF404601F0FFFD3046BDE8F087CB
:105860002F4951F8200028B190F8A300023818BF42
:1058700001207047002070472DE9F047054691F858
:10588000A300002849D1B1F892000E46C00744D0C9
:1058900096F8C200002840D02148144650F82580D0
:1058A00001F056FF96F856108146B06D012902D1DD
:1058B00096F8501089BBA0EB090121F07042716F7E
:1058C0008A422AD9B2FBF1F7B6F88A204FF6FF7C5C
:1058D000BBB29A4208BF67441FFA87FA924509D3C0
:1058E0002748284940F25A2201F0A7FDB6F88A203D
:1058F000B06D716F01FB1A00D21B0021A6F88A203F
:1059000020F07040B065404601F0A0FE28464946B0
:105910002246BDE8F04701F025BFBDE8F08700BF93
:105920006C5D4120182804BF06487047012804BF59
:105930000348704708B9044870470020704700BF0B
:105940009950001C0152001CB950001CB0B50B4C02
:10595000A17F81B191FAA1F2B2FA82F530B908487B
:10596000084940F2362201F068FDA17F0120A840DD
:1059700021EA0000A0770020B0BD00BF20474120F1
:10598000A079001C077A001C10B541F20100834287
:1059900006D1084641F20101BDE81040FEF74ABDBC
:1059A0000A4A00205D280ED032F830409C4201D0D7
:1059B0000130F7E702EBC000426822B10846194601
:1059C000BDE810401047002010BD00BF84C5050091
:1059D000B0B5294C94F84C5035B1E47C022C03D17D
:1059E0004C7B0CB18C7B1CB1BDE8B04001F0CEBE4D
:1059F0000020B0BD09B102230B7002280FD81D4B47
:105A0000022853F8301003EBC0035B681160536049
:105A100005D0012804D000BB1848407910B3704766
:105A2000154890F82A3003F001031943117090F8DB
:105A30002C3003F0010341EA4301117090F82D303E
:105A400003F0010341EA8301117090F82B0000F08C
:105A5000010041EAC0001070704709A202218123B1
:105A600001F06DBD080E40EA032000F0FB00D0708D
:105A7000704700BF6CC80500606341202940412089
:105A80006C6D5F70617463682E63000041F20511F4
:105A9000884204BF0448704740F2015188420CBF5D
:105AA00002480020704700BF8959001CD159001CD2
:105AB00070B5054640780C46182812D1AD49200A29
:105AC00051F8206096F8360001280AD1204601F0EE
:105AD000F0FC322805D096F83C0002281CBF0020BC
:105AE00070BD28462146BDE8704001F054BE00BF9D
:105AF000F8B506469F480D0A0C4650F82570084632
:105B000001F0D7FC1F280DD025280ED197F83600BC
:105B100058B997F8393028460B21232201F040FE6E
:105B20000020F8BD002087F87A0130462146BDE804
:105B3000F84001F03ABE00BFB0B501F083FC374D2C
:105B40000446284601F0AFFD10B101F057FDF8E71B
:105B50002046BDE8B04001F07FBC00BF2F480021C7
:105B6000C0E90011704700BFF0B585B06E4605462C
:105B7000304601F01FFE01F065FC284F0446384610
:105B800001F091FD58B101460079A84203D10846C1
:105B900001F034FDF3E7304601F059FCEFE70098DF
:105BA00018B11E48694601F00AFE204601F054FC77
:105BB00005B0F0BDB0B501F045FC0446174801F052
:105BC00072FD0546204601F047FC2846B0BD00BFE7
:105BD000F8B5054611480C4601F0F6FD042816D824
:105BE0001C20002101F083FC064601F02BFC074637
:105BF0000A48314601F02BFC384601F02DFC357186
:105C0000701D21461422BDE8F84001F08EBC280228
:105C100022210130BDE8F84001F0DBBD14424120F3
:105C2000F8B5054653480C0A50F82470084601F0B0
:105C300040FC192807D8012101FA00F01A4908424E
:105C400001D00020F8BD287800F0010397F8360055
:105C500087F8393001281CD105F10906304601F0DA
:105C6000BDFD142817D3287A022814D207F50A702C
:105C700031460A2201F0B7FD69682A7A2046334688
:105C800001F0B6FD287A002818BF012087F84C02E1
:105C9000D7E7242202E097F839301E2220463C2123
:105CA00001F07EFDCDE700BF0100C003F8B5064658
:105CB00030480D0A0C4650F82570084601F0F9FBF3
:105CC000A0F11601042915D3A0B12E280DD11A4830
:105CD000342115FB0100407A28B197F8360010B93D
:105CE0003078C0071FD1F08850B1307800F0010043
:105CF00087F8390030462146BDE8F84001F07DBD07
:105D00001D482146026840F2046090473078172110
:105D1000122200F00103284601F042FD2046202116
:105D200001F070FD05E0284617212322012301F030
:105D300037FD0020F8BD00BF685C412070B5054606
:105D40000C46080A0B4951F82060204601F0B1FBCF
:105D5000322809D196F83600012805D10648214697
:105D6000026840F20460904728462146BDE8704032
:105D700001F04DBD605C41205044412010B51446F7
:105D8000212807D070B9B1F5800F0BD198B2FFF779
:105D9000DDFD08E0202905D1184601F02FF9012189
:105DA000002001E000200021217010BD10B5144634
:105DB000A0F11202032A0FD9072818D020281DD0DD
:105DC000232821D0292854D1022947D0082950D18D
:105DD0001846FEF729FC4CE0DFE802F0021D2436ED
:105DE000B1F1807F45D11846FEF78CFE4AE0B1F54F
:105DF000002F3ED11846FFF7D9FA43E0082938D1E1
:105E0000184600F0E5FF34E0B1F5007F31D1D8B29B
:105E100001F004F92DE0B1F5804F2AD11846FEF7C4
:105E2000C7FE2FE0B1F1004F1CD0B1F1005F1DD0D3
:105E3000B1F5807F1FD0B1F5805F20D0802918D1C7
:105E40001846FEF7FDFE1DE0022912D11846FFF7A5
:105E5000DBF80138B0FA80F0400914E01846FEF78C
:105E600069FD06E0D8B2FFF7C7F80BE0D8B2FEF73D
:105E7000D7FF002007E01846FEF730FF02E0184683
:105E8000FEF75AFF0120207010BDB0B5054614463C
:105E90000A4604990020072D20700FD0132D27D11A
:105EA000B2F1006F17D0B2F1805F19D1D8B201F012
:105EB000B3FC98B1002020700120B0BDB2F5805F26
:105EC00010D0B2F5804F14D0B2F1006F08D1D8B223
:105ED000FFF7DAFBB0BDD8B201F0A3FC01202070BF
:105EE0000020B0BDD8B2002918BF0121FFF7CCF9BE
:105EF000B0BDD8B2FFF7F4F9B0BD10B51446122802
:105F00000FD1029AB1F5800F0DD0B1F5805F08D1A5
:105F1000D1B2184601F08AFC0138B0FA80F040098D
:105F200006E0002004E0D8B2D1B2FEF7ADFD0120BA
:105F3000207010BD10B5144600221428227008BF2E
:105F4000B1F5803F06D1DDE90212D8B2C9B2FEF741
:105F500049FF01220020227010BD000070B50738F3
:105F600014460A4600210E28217033D8DDE90415B5
:105F7000DFE800F00822303030303030303030137D
:105F800029311B00B2F5800F31D0402A22D1D8B27E
:105F9000C9B2EAB2FFF74EF926E0B2F1804F19D14B
:105FA000EAB21846FEF7B0FD1CE0042A12D1EAB2AC
:105FB0001846FFF73BF817E0B2F5806F0AD1D8B268
:105FC000FFF74EFC05E0B2F5803F03D1C8B2FEF703
:105FD0000FFF48B970BDB2F5806FFBD1EAB2184629
:105FE000FEF78CFE0028F5D10120207070BDD8B2DC
:105FF000EAB2BDE87040FFF7EBB9B0B51446002235
:106000001528227008BFB1F5007F01D00020B0BD77
:1060100004ADD8B226CD2B46C9B2FFF727F801212F
:106020002170B0BDB0B5144600222628227008BFEA
:10603000402900D0B0BD04ADD8B226CD2B46D2B297
:10604000C9B200F069FE01202070B0BD00201070C0
:106050000020704710B5A0F1210314460022072B41
:106060000AD8DFE803F00456565610161F470829D1
:106070004AD100F0E1FE47E017284AD1012943D177
:10608000FEF7C0FE44E0B1F5805F3DD1FFF754FD5F
:106090003EE0B1F5800F35D0B1F5001F34D100F0EE
:1060A00071FE31E0B1F5807F2ED11B480168D0F838
:1060B0008802084328D01948016841F004010160B2
:1060C0000168002903D40168B1F1FF3FFBDC01F056
:1060D000B2FB022001F0B4FB1149B0FBF1F0114911
:1060E0000A686FF3184242EA0040012240F40000BF
:1060F00008600EE0B1F5802F08D0082904D1FDF723
:10610000EDFF01E000F050FE002202E001F01CF87B
:106110000122227010BD00BFD86741200C0004503E
:1061200000127A001400005070B586B01446024682
:106130000020142A20701DD0132A37D0072A47D1F7
:10614000B1F1804F43D10AA8BDF83430BDF83020FA
:10615000BDF83840BDF83C50BDF8406000F11C016E
:10616000059110F8041F9DF828008DE87000FFF7D6
:1061700023FB2DE0B1F5005F29D10AA8BDF834302A
:10618000BDF83020BDF838509DF83C6000F1180192
:10619000049130F8041F9DF82800CDE90056FEF761
:1061A000FBFDFF281CBF0121217011E0B1F5004F5C
:1061B0000DD10AA80CAC00F11401039150F8041F92
:1061C0009DF828001CCC0094FEF7F4FC00E00020B1
:1061D00006B070BD1CB500232528137008BF082920
:1061E00000D01CBD04A89DF8204000F114010191CD
:1061F00050F8041FDDE906230498009400F012FD16
:106200001CBD0000A04A0021072904D05356834238
:1062100001DA0131F8E7B4480170704710B5084859
:10622000B14C016821F01001016094F90200FFF700
:10623000E9FF2078F9490856BDE8104000F084BA1B
:10624000E040085070B5F44E0D460446F3493078EE
:10625000085C40B21DB1012100F0C6FB01E000F076
:1062600025F8021F7178B2FA82F2002918BF0121C5
:1062700052091140002D18BF012529400844C1B220
:106280002046BDE87040FEF7B3B800BF704700007D
:10629000044805A10068C0F34100032808BF02209C
:1062A000085C70475028085001000200002100F0EF
:1062B00067BC000010B500F0C3F9D748C1780029C9
:1062C0006BD16F496F4A40F2FF33C1F800210A6871
:1062D00042F010020A600A6822F080720A600A68BE
:1062E00022F080020A60D1F8CC2042F08062C1F82E
:1062F000CC20D1F8D4206FF39322C1F8D420D1F868
:10630000D42042F48032C1F8D420D1F8D4209A436A
:10631000C1F8D420D1F8D42042F48072C1F8D4203E
:10632000D1F8D8206FF39322C1F8D820D1F8D82023
:1063300042F48032C1F8D820D1F8D8206FF3090296
:10634000C1F8D820D1F8D82042F4A072C1F8D820E2
:10635000A622C1F8DC20D1F8DC2022F47062C1F85A
:10636000DC20D1F8DC2042F4C062C1F8DC20D1F896
:10637000DC2022F47042C1F8DC20D1F8DC2042F4A9
:106380002042C1F8DC200A6C42F080020A64D1F895
:10639000E02022F00402C1F8E02000789F4908566E
:1063A00000F0D2F9394C3A483B49404A206039481C
:1063B000C0F8EC133949C0F8F4133949C0F8F813A0
:1063C0003849C0F8FC1340F25571C0F80014364942
:1063D0000A60374A4A60374A8A60374ACA600D22E3
:1063E000D4F8901362F305013722C4F89013D0F863
:1063F000A81062F305015022C0F8A810D0F8A81028
:1064000041F48051C0F8A810D0F8A81041F4005110
:10641000C0F8A810016862F317410160016862F3D7
:10642000070140220160D4F8081462F30D010B2229
:10643000C4F80814416862F30E21032241604168E8
:1064400062F306014160606820F40050606060689B
:10645000800405D519481A4940F2E54200F0EDFFE5
:10646000606840F4005060606068800448BF10BD00
:106470001248134940F2EA42BDE8104000F0DDBF87
:106480000040085055555568FE78001C70000950B2
:10649000001020208C0409504000C00840053C003A
:1064A0005003500055075000900809500709090093
:1064B000030507000309A81C03002817A079001C86
:1064C000A479001C10B50446072001F0BEF98A4AE1
:1064D000C10FD170C0F306605070FFF7EBFE20468D
:1064E000BDE8104000F002B820404120F0B595B062
:1064F000044601208DF80300072001F0A6F90646A6
:106500003F484049C4E908101120310C84F82C00A0
:106510003D48606106F47F00B0F5202F08BF0921D7
:106520004DB2284600F010F984F82D003748A062DB
:1065300037482060F0B20A284FEA162008BF092623
:1065400076B20B2D04DB33490A6842F008020A6078
:10655000694FB87128467E71BD70FFF753FE2F4911
:106560000020072804D00A56B24201DA0130F8E7C9
:10657000F8712B482B492E4A2E4BC4E906102A48A5
:106580002A49C4E90132C4E90310002101A82829DD
:1065900003D04A0042540131F9E728216FF04E023E
:1065A000502904D002EB410343540131F8E722485B
:1065B00001A9502201F04EF9204E04F12E050DF1F3
:1065C00003013A202A463368984708B1D82028703A
:1065D00004F12F0533680DF103013B202A4698474B
:1065E00008B1C4202870303433680DF103013C2019
:1065F0002246984708B1BA20207015B0F0BD00BF00
:106600004367001C3F67001C556A001CD169001CD1
:106610003D67001CE040085020404120FE78001CEF
:106620004567001CE969001CE173001C156B001C28
:10663000B96A001C8D62001C00814120DC474120AA
:1066400029480121D04B0160C0490A6822F4F06258
:106650000A600A6842F4A0620A604A681A40234B42
:106660004A604A681A43224B4A604A6B1A40214BDF
:106670004A634A6B1A434A63BE4AD2781AB94A6BD4
:1066800042F020624A631D490A1D42651C4A826528
:10669000C1651C491D4A01661B4941661B31826662
:1066A000C1661B4901671B4941671B4981671B493B
:1066B000C1671B49C0F880101A49C0F884101A49F4
:1066C000C0F888101949C0F88C101949C0F890100A
:1066D0001849C0F894101849C0F898104FF48E610A
:1066E000C0F89C10704700BF2C410850A0823A00AF
:1066F000FCFFF3F00100080020404120FCEFFF0008
:10670000FDCFFF00050001001DB0020037C00300EF
:106710001580FF00D5FFFA008A9FF600518FF40024
:1067200050DFF600A1CFFE004E300C0048511D0096
:1067300065122F006FB33D002CF445007047002018
:106740007047704740B270472DE9F0417E4E0446D5
:106750007E4F7F4D56F8080C0B2C0FDB40F01000DD
:1067600046F8080C306828403060306840F02E70E1
:1067700030602046FFF79AFD804662E020F010006E
:10678000002C46F8080CF86A20F00600F862F86A57
:1067900020F00100F862386B20F478403863386BE1
:1067A00020F4806038634FF00000C8BF0120042C43
:1067B0004FEA8000C8BF0A200A2810D0042814D04D
:1067C00010BBF86A40F00200F862F86A40F001007D
:1067D000F862386B40F400603863386B12E0F86A96
:1067E00040F00400F862F86A04E0F86AF862F86AB7
:1067F00040F00100F862386B40F478403863386B41
:1068000040F48060386305E052A053A140F2A63204
:1068100001F025F82046012100F0E6F88046F06AF4
:1068200020F0FC00F062F06A40EA8800F062306814
:1068300028403060306840F0217030602046FFF71B
:1068400035FD4C4A4EA5D1787B6B23F07C030029A3
:106850007B6349A308BF1D46285C7B6B43EA80002D
:10686000786349B1786B0D2C20F07060786303D0A9
:10687000786B40F0206078635078002860D00D2C51
:106880005CD11079002859D000203F4A70643868E4
:1068900020F4F0603860386840F4806038607868D0
:1068A00000EA0200394A7860786840EA02007860BD
:1068B00039B9786B364908407863786B40F07E00D0
:1068C00078634FF480503849C6F8980042F20100CE
:1068D000C6F89C002F48C6F8A0002F48C6F8A400B0
:1068E0002E48C6F8A8002E48C6F8AC002D48C6F8B9
:1068F000B0001930C6F8B410C6F8B8002B48C6F876
:10690000BC002B48C6F8C0002A48C6F8C4002A4874
:10691000C6F8C8002948C6F8CC002948C6F8D000F7
:106920002848C6F8D4002848C6F8D8002748C6F832
:10693000DC0040F2C440C6F8E00001E0FFF780FE52
:106940004046BDE8F08100BFE840085024280850C8
:10695000FFFF03F83000000072665F74785F706FAD
:106960007765725F62617369635F636F6E666967A3
:1069700000000000204041200004070A121F1F1FD2
:106980000005080E1B1B1F1F0F7C80FF000110005D
:1069900080FFF3F000D0FF00F71FFF00EDCFFE00F7
:1069A000EF8FFF00041001001BF00100FCFFFD0051
:1069B000BF0FFA0088FFF7008B2FFB00F7BF050021
:1069C000DC4017001B622C0068733F0065C44A005E
:1069D0000448016841F0010101600168C906FCD565
:1069E000704700BF3C000450B0B50C4605460B286C
:1069F00005DB28462146BDE8B04000F0C1B8FFF7EE
:106A000047FCC0EB00102B4901EB4000002110298E
:106A100007D010F911207F2A05D0AA4204DA0131EB
:106A2000F5E7102100E00139CAB2EDB2B4FA84F4FE
:106A300010F8123064095B1B18BF0123002A18BF2D
:106A4000012223401A40891AC9B200EB4100407864
:106A5000B0BD00BFB0B50D460446FFF719FC012DCF
:106A600015D1454991F905100B2910DAC0EB001238
:106A7000104901EB42030022102A10D003EB42051B
:106A80006D78FF2D0BD0A5420BD00132F4E7601CCE
:106A9000072C04D80138FBD14648005D07E00020F0
:106AA00005E0C0EB001001EB400010F8120040B20E
:106AB000B0BD00BF0579001C70B52F4D0446687845
:106AC00018B12046FDF724FB2871287800B32B4E1F
:106AD00095F90620315691421ADD01382870C0B26E
:106AE0003056FFF731FE28783056FFF7DFFB0146BE
:106AF0002046FDF77DFC287895F9062000233156C5
:106B0000B0FA80F040099142D8BF0123184370BD0C
:106B1000012070BD70B5184D0446687818B1204644
:106B2000FDF7F6FA28712878062822D8134E95F931
:106B30000520315691421CDA013028703056FFF79B
:106B400003FE28783056FFF7B1FB01462046FDF7DB
:106B50004FFC287895F905200023315691424FF0DB
:106B60000001A8BF0121062888BF012343EA0100D4
:106B700070BD012070BD00BF20404120FE78001C88
:106B800010B50C4B0022082A04D09C5C844202DA27
:106B90000132F8E70024201AB1FA81F118BF012070
:106BA00049090840D1B2002918BF01210840101A34
:106BB000C0B210BD7879001CF0B585B000201C462D
:106BC00002AF15460E46022B12A24FF00A01ADF895
:106BD0001000CDE9020028BF02243846234600F009
:106BE00043FE14204FF4006331462A46002C0190E6
:106BF0000B4810F824000090384608BF4FF400738B
:106C000000F037FE044610B1204600F037FE204663
:106C100005B0F0BD4B455F455654256400000000AB
:106C2000285005002DE9FF47044601209A4690466A
:106C30000D460DF10E010DF10F028DF80E002448E6
:106C4000036886209847DDF83090A8B100208DF8C1
:106C50000F00B9F1010F38D1012021462A464346E1
:106C6000CDE900A01BA000F0D9FB29A021462A46AF
:106C700000F0F5FDBDE8FF879DF80F000028E8D083
:106C8000204600F000FE0421002211FA80F00021CD
:106C900020F0030707F1200083B241F2091000F051
:106CA000EFFB07F11001064600F0F2FD301D214612
:106CB00080E82005022086F80190307006F110006F
:106CC00000F0EBFD304600F0D6FBBDE8FF8700BFCB
:106CD000DC474120727769705F6173736572743A43
:106CE00066696C653A2025732C206C696E652025D9
:106CF000642C20706172616D303D25642C7061726E
:106D0000616D313D25642C747970653D25640A0000
:106D10004153534552540000BCB5194900200DF1B0
:106D200006020023022810D051F820404CB194F8FC
:106D3000AA50972D05D3B4F9A83093FBF5F401239D
:106D400000E0002414540130ECE7BBB141F209101B
:106D500006210022A42300F093FB044630201A49A8
:106D60004F222070BDF8060001F50E71A4F8010055
:106D7000E01C00F0DAFB204600F0DCFBBCBD00BFED
:106D800098474120B0B50F4C0A2020700A2000F02F
:106D90005CFD632804D80420042500F056FD25700E
:106DA0000949C1F89402B0BD10B5064C207800F036
:106DB0004CFD28B1207800F048FD0349C1F8940249
:106DC00010BD00BF40404120D8674120FEF7B4BE4F
:106DD000F8B5054600F036FB164E04462946304607
:106DE00000F060FD18B11348294600F060FD002155
:106DF0007F48366876B172686B689F1A27F07047D3
:106E0000874207D8934203D132892B89934201D913
:106E10003146EEE7074819B12A4600F04DFD04E07F
:106E2000294600F04EFD00F051FD2046BDE8F84037
:106E300000F012BBC46A41202DE9FF47DFF8A4919E
:106E400001A8D9F8007000F011FBDFF89C8198F8D8
:106E50002F00FF280AD000F06CFC98F82F100822B1
:106E6000C90002FA01F1084300F068FCD7B1D9F873
:106E70001400B8B17968019A8B1A511A23F0704343
:106E800021F07041B3F1006F88BF4B425749C27E79
:106E9000097811448B4205DC0021C9F81410016AFD
:106EA00001B18847002F00F0858038897968A0F506
:106EB0008762B2F1FF3F05DC481E02F2712220F02A
:106EC0007041F6E701984A4CA2460B1A23F0704332
:106ED000A34206D881422FD1BDF80800824208465D
:106EE0002ADA484600F0DFFB09F11805014628467A
:106EF00000F0ADFA3D4C3F4ED9F80070002F59D04C
:106F0000207879685346081A81190198421A22F0AC
:106F10007042524510D821F07041814204D1398924
:106F2000BDF808208A4207D9484600F0BCFB01465C
:106F3000284600F08CFADFE72C496FF070420978A0
:106F400051407A6811440A1A22F07042524508D81A
:106F500021F0704188422DD13889BDF8081088424F
:106F600028D8484600F09FFB0546D9F8140010B118
:106F7000016A01B18847E869C9F8145030B120208E
:106F8000294600F0A8FCE96928468847D9F800009E
:106F900080B1D9F8141040684968401A6FF0784100
:106FA00020F07040884205D31B4913A040F209121B
:106FB00000F043FAD9F8180008B100F091FC00F095
:106FC00094FC98F82F00FF280AD000F0B2FB98F844
:106FD0002F100822C90002FA01F1884300F0AEFB2D
:106FE000BDE8FF87D86A412074464120786A412075
:106FF000FEFFFF07010000F04153530080B540B190
:10700000817EFF2905D1044A002140F2211300F0BE
:1070100096FA002080BD00BFDF79001CF8B53F4D17
:107020000446A87FFF2809D000F083FBA97F08222F
:10703000C90002FA01F1084300F080FB384E96F8CF
:10704000020120B937483849A22200F0F6F906EBD0
:1070500004172001354A17F80C1F105A69B100F0C7
:107060003000302809D106EB04114B685BB12001D8
:1070700089680422305898470AE02A482A49C322DE
:1070800000F0DBF928E027482749B22200F0D5F9C3
:1070900096F80001A04202BF601C00F00F0086F8C5
:1070A00000010020A97F387096F80201FF29A0F1A5
:1070B000010086F8020111D000F03BFBA97FF0220D
:1070C000C9008A40904396F802211201D2B202FA16
:1070D00001F1084300F032FB96F80201C0B248B15A
:1070E00001280AD196F80001013000F00F0086F85F
:1070F000010102E0402000F0AEFAA87FFF2808BF9F
:10710000F8BD00F016FBA97F0822C90002FA01F1C0
:107110008843BDE8F84000F011BB00BF7446412031
:10712000086B4120A079001CEF79001C00804120F1
:1071300001A000F073B900BF656E61626C65204C00
:1071400043505520322E2E0048494448016100F535
:10715000032141617321C1604FF4804181608168E6
:1071600041F408618160816841F410718160816837
:1071700041F00101816001688907FCD5012141606E
:10718000816821F001018160704700BF80B500F087
:10719000B1FB3248012133224160816821F00101B5
:1071A00081602F4901612F494161C26044F21002A0
:1071B0008260826842F408628260826842F41072DF
:1071C0008260826842F00102826002689207FCD508
:1071D00001224260826822F001028260224A02613A
:1071E00000F5012242614FF40072C26044F21002C5
:1071F0008260826842F408628260826842F410729F
:107200008260826842F00102826002689207FCD5C7
:10721000012201F5C0514260826822F001028260C1
:10722000124A026141617321C16044F21001816020
:10723000816841F408618160816841F41071816066
:10724000816841F00101816001688907FCD5012155
:107250004160816821F00101816080BD0010005013
:10726000E0564120002808500C4D41204840412064
:10727000F0B53C483C4940F2062501603B483C499A
:1072800001603C483C4901603C483D4901603D4843
:107290003D4901603D483E4901603E483E4901602C
:1072A0003E483F4901603F483F4901603F484049EF
:1072B00001604048404901604048414901604148FF
:1072C000D0E91414D0E91223D0F8807047F00807F1
:1072D0002C4341F608054465D0F894402C433A4DC0
:1072E000C0F89440D0F8A0402C43C0F8A040D0F89B
:1072F0009C4044F48074C0F89C40D0F88C4044F426
:107300000074C0F88C40D0F8A44044F00A04C0F8DF
:10731000A4400468D0E90756C0F8807044F48004A3
:107320000460D0F8844044F00804C0F88440274C3E
:107330002C4346F48065C0E90745254C2343D0F82B
:107340009840C364234B1A438264C26D42F0010229
:10735000C265214A2243C0F89820204A11430165A2
:10736000F0BD00BFC04441204D60001CC44441201A
:107370005560001CA4444120AD5D001CA044412088
:107380007D5D001CAC444120FB5E001CA8444120F4
:107390008B5E001CB44441205D5F001CB044412062
:1073A000355F001CBC4441202560001CB8444120CE
:1073B000FB5F001CCC444120D561001CC844412027
:1073C0002961001C0C564120080004004050484828
:1073D00000C001180010404140006000803501A04D
:1073E00070B50C4D0446687818B12046FCF790FE45
:1073F0002871E879084E28703056FFF7A5F92878EB
:107400003056FEF753FF01462046BDE87040FCF7BA
:10741000EFBF00BF20404120FE78001C4FF2357CBA
:10742000C0F2040C604743F2710CC0F2000C6047DC
:1074300048F6257CC0F2050C604744F6097CC0F292
:10744000050C604740F2DD7CC0F2000C604745F659
:10745000D13CC0F2000C604740F2E57CC0F2000C69
:10746000604740F6FD1CC0F2000C604746F2511C1C
:10747000C0F2050C604743F20D5CC0F2010C60479E
:1074800046F6E54CC0F2010C60474BF6E12CC0F229
:10749000020C604748F2691CC0F2000C604743F6DA
:1074A000B13CC0F2050C604741F67D0CC0F2010C06
:1074B000604746F6756CC0F2010C604745F2C16C3E
:1074C000C0F2000C604745F2696CC0F2000C6047E6
:1074D00049F6B11CC0F2020C604745F2053CC0F20F
:1074E000000C604744F6D10CC0F2000C604746F631
:1074F000654CC0F2010C604746F66D2CC0F2010CE1
:10750000604746F2717CC0F2010C604747F2296C7B
:10751000C0F2010C604747F2C17CC0F2010C604729
:1075200045F2416CC0F2000C604740F6212CC0F2DD
:10753000000C604746F6555CC0F2010C604744F60B
:10754000457CC0F2050C604745F2653CC0F2040C76
:10755000604740F6AB2CC0F2000C60474DF6793C1A
:10756000C0F2010C604744F2392CC0F2020C6047B3
:1075700049F20D4CC0F2020C60474FF26D7CC0F234
:10758000010C60474FF28D1CC0F2010C60474DF2B8
:10759000954CC0F2010C60474DF2A50CC0F2010CF5
:1075A00060474EF6751CC0F2010C604746F6C96C88
:1075B000C0F2010C604749F27D2CC0F2010C60471B
:1075C00049F2D92CC0F2010C604745F2994CC0F247
:1075D000000C604747F2D94CC0F2000C604749F2FA
:1075E000E54CC0F2010C60474BF6211CC0F2010CC7
:1075F00060474FF2C90CC0F2010C604746F6090C17
:10760000C0F2010C60474EF2293CC0F2010C604709
:107610004BF6D91CC0F2010C604748F22D6CC0F249
:10762000010C604745F2914CC0F2000C604746F2F5
:10763000292CC0F2000C604740F61D2CC0F2020C51
:10764000604747F2814CC0F2000C604747F27D0C66
:10765000C0F2050C604745F6897CC0F2050C604716
:1076600049F2816CC0F2020C604749F2E96CC0F249
:10767000020C604744F68D7CC0F2050C60474BF667
:10768000296CC0F2020C604745F6653CC0F2050C5F
:10769000604745F2593CC0F2020C604745F6C57C94
:1076A000C0F2050C604745F6AD3CC0F2000C6047E7
:1076B00045F2C55CC0F2000C604749F6352CC0F2BB
:1076C000020C60474BF6B97CC0F2020C604740F2F6
:1076D000451CC0F2030C604740F26D1CC0F2030C65
:1076E000604740F2791CC0F2030C604740F21D1C59
:1076F000C0F2030C604740F2E91CC0F2030C604783
:1077000040F2256CC0F2030C60474EF6950CC0F2B7
:10771000020C60474CF6E53CC0F2020C604745F6AF
:10772000011CC0F2030C604748F2454CC0F2030C48
:10773000604745F20D7CC0F2000C604745F2297CA1
:10774000C0F2000C604744F6E16CC0F2030C6047E5
:107750004DF21D7CC0F2030C604747F24D1CC0F295
:10776000030C604747F2A96CC0F2030C604744F277
:10777000BD1CC0F2040C604746F6F93CC0F2030C95
:10778000604748F2911CC0F2030C604746F2215C4E
:10779000C0F2040C604748F2B96CC0F2040C6047B8
:1077A0004DF2913CC0F2010C604748F6717CC0F28A
:1077B000040C604745F6A12CC0F2000C604745F66A
:1077C000453CC0F2000C604745F6894CC0F2000C05
:1077D00060474EF6213CC0F2010C604745F6A96CAB
:1077E000C0F2000C604740F2FB1CC0F2050C604781
:1077F0004FF24D2CC0F2010C60474CF2990CC0F2D4
:10780000040C60474DF6A13CC0F2010C60474DF2FC
:10781000A91CC0F2040C604747F2BD2CC0F2410C19
:10782000604747F2653CC0F2410C604747F2492C83
:10783000C0F2410C604747F2192CC0F2410C60477E
:1078400041F6614CC0F2000C604741F6612CC0F279
:10785000000C604740F6212CC0F2000C60474DF64A
:10786000E95CC0F2040C604743F2AD2CC0F2050C99
:10787000604743F2DD6CC0F2050C604743F6815C63
:10788000C0F2050C604740F69D2CC0F2000C60472A
:1078900040F66F2CC0F2000C604740F6C52CC0F2D9
:1078A000000C604745F68D2CC0F2000C604745F691
:1078B000451CC0F2000C604745F6B52CC0F2000C28
:1078C000604745F6554CC0F2000C604746F2C15C7B
:1078D000C0F2050C604747F2316CC0F2000C604703
:1078E00046F2CD0CC0F2050C604746F6817CC0F232
:1078F000050C604749F2A10CC0F2050C604700037B
:1079000006090D1013EC13EF15F217F61BF71DF80F
:107910001EF920FA22FB24FC27FD2BFE2FFF34004A
:107920003E7FFFEC11F013F317F718FA1BFD1E0052
:1079300025012B022F0334043D7FFF0000000000CF
:1079400000E610F011F912FE130115041A052006C5
:10795000240728082E09340A3E7FFF00000000009B
:10796000B15A001CBB79001C82000000F15A001CB7
:10797000B679001CD1000000000306090D0D10139C
:1079800030000000007A001C215C001CAF79001C54
:10799000D0000000AD5C001CBE79001C4A00000055
:1079A0004153530072665F70617463682E630042D6
:1079B0004C423130420042313642004242004242A3
:1079C00048484848006C635F70617463682E6300C8
:1079D0006C645F61636C5F70617463682E630073D5
:1079E00063685F6172625F70617463682E630073C5
:1079F00063685F70726F675F70617463682E6300A5
:107A0000423242373942006C6C645F706174636863
:107A10002E6300003D5D001CBC79001C410000008D
:0400000500000000F7
:00000001FF
